:020000040800F2
:100000000050002009150008C9070008CB070008A8
:10001000CD070008CF070008D10700080000000046
:10002000000000000000000000000000D3070008EE
:10003000D507000800000000D7070008D90700080E
:1000400051150008511500085115000851150008F8
:1000500051150008511500085115000851150008E8
:1000600051150008511500085115000851150008D8
:1000700051150008511500085115000851150008C8
:1000800051150008511500085115000851150008B8
:1000900051150008511500085115000851150008A8
:1000A0005115000851150008511500085115000898
:1000B0005115000851150008511500085115000888
:1000C0005115000851150008511500085115000878
:1000D0005115000851150008511500085115000868
:1000E00051150008511500085115000800000000C6
:1000F0000000000000000000000000000000000000
:0C01000000000000000000005FF808F1A3
:10010C0000F1340191E838009C46A6464CF8045D99
:10011C0090E8FF0FE54600BD90EC210B704700BF47
:10012C0080EC210B704700BF90EC200B704700BF98
:10013C0080EC200B704700BFD0EC200B704700BF49
:10014C00C0EC200B704700BFF0EC0201F0EC021188
:10015C00F0EC0221F0EC0231F0EC0241F0EC025137
:10016C00F0EC0261F0EC0271F0EC0281F0EC029127
:10017C00F0EC02A1F0EC02B1F0EC02C1F0EC02D117
:10018C00F0EC02E1F0EC02F1704700BFE0EC020190
:10019C00E0EC0211E0EC0221E0EC0231E0EC024177
:1001AC00E0EC0251E0EC0261E0EC0271E0EC028167
:1001BC00E0EC0291E0EC02A1E0EC02B1E0EC02C157
:1001CC00E0EC02D1E0EC02E1E0EC02F1704700BFA0
:1001DC00B0FC0181B0FC0191B0FC01A1B0FC01B1FB
:1001EC00704700BFA0FC0181A0FC0191A0FC01A103
:1001FC00A0FC01B1704700BFEC4600B52DE90050E2
:10020C002DE9FF1F4FF000032DE90C0001A901F0AF
:10021C000FFCDDF840E012B0704700BFEC4600B5B3
:10022C002DE900502DE9FF1F4FF000032DE90C00C4
:10023C0001A901F03DFCDDF840E012B0704700BFB1
:10024C00EC4600B52DE900502DE9FF1F4FF00003DF
:10025C002DE90C0001A901F04DFCDDF840E012B0D5
:10026C00704700BFEC4600B52DE900502DE9FF1F8B
:10027C004FF000032DE90C0001AB01F00DFCDDF893
:10028C0040E012B0704700BFEC4600B52DE90050BD
:10029C002DE9FF1F4FF000032DE90C0001AA01F01E
:1002AC007FFCDDF840E012B0704700BF844641EAA5
:1002BC00000313F0030349D1403A23D30B680360C6
:1002CC004B6843608B688360CB68C3600B690361C8
:1002DC004B6943618B698361CB69C3610B6A0362B0
:1002EC004B6A43628B6A8362CB6AC3620B6B036398
:1002FC004B6B43638B6B8363CB6BC363403040317D
:10030C00403ADBD230320BD30B6803604B6843604E
:10031C008B688360CB68C36010301031103AF3D215
:10032C000C3205D351F8043B40F8043B043AF9D2A3
:10033C00043208D0D2071CBF11F8013B00F8013B76
:10034C0001D30B8803806046704700BF082A13D383
:10035C008B07B1D010F00303AED0C3F10403D21A53
:10036C00DB071CBF11F8013B00F8013BA4D331F8AB
:10037C00023B20F8023B9FE7043AD9D3013A11F82B
:10038C00013B00F8013BF9D20B7803704B784370BA
:10039C008B7883706046704710B5054C237833B961
:1003AC00044B13B10448AFF300800123237010BD3C
:1003BC001C060020000000003425000808B5034B83
:1003CC001BB103490348AFF3008008BD00000000D7
:1003DC0020060020342500082DE9F04188B00024C7
:1003EC000494059406940794274B9A6942F02002D2
:1003FC009A619A6902F020020192019A9A6942F07C
:10040C0004029A619A6902F004020292029A9A69B1
:10041C0042F008029A619B6903F008030393039B63
:10042C001A4E22465821304600F0A4FB184F2246A3
:10043C004FF44061384600F09DFB4823049301259E
:10044C00059506940323079304A9304600F080FA1F
:10045C0010230493059506944FF00208CDF81C80E8
:10046C000DEB0301304600F073FA4FF44063049334
:10047C0005950694CDF81C8004A9384600F068FA5E
:10048C0008B0BDE8F08100BF001002400008014038
:10049C00000C014072B6FEE708B50D480D4B036029
:1004AC004FF48273436000238360C3600361436134
:1004BC004FF4007282613822C2610362436283622C
:1004CC000A23C36200F0E2FE00B908BDFFF7E2FFA9
:1004DC00380600200030014000B591B028220021E0
:1004EC0006A801F055F8002301930293039304939B
:1004FC000593012206924FF4803307930A9202224D
:10050C000D920E9306A800F051FB88B90F230193AE
:10051C0002230293802303934FF4806304930021FE
:10052C00059101A800F080FD20B911B05DF804FB25
:10053C00FFF7B0FFFFF7AEFF10B586B000F072F911
:10054C00FFF7CAFFFFF748FFFFF7A6FF00F062F8BE
:10055C0000F0A8F8184A03AB07CA03C323F8022B10
:10056C00120C1A70002406E006AB234413F80C0C92
:10057C0000F0A4F8013403A801F05CF8A042F3D811
:10058C000421142000F0B2F80C4B93E80300019006
:10059C00ADF80810090C8DF80A10002406E006AB23
:1005AC00234413F8140C00F089F8013401A801F06D
:1005BC0041F8A042F3D8FEE74C2500085825000866
:1005CC0010B582B08DF8070039B101291CD1002279
:1005DC0040210E4800F0CEFA04E0012240210B48E5
:1005EC0000F0C8FA094C00220821204600F0C2FA9B
:1005FC000A2301220DF10701054800F0A2FE012299
:10060C000821204600F0B6FA02B010BD00080140E7
:10061C003806002030B583B01F4C0122082120463B
:10062C0000F0A8FA1D4D01224FF40061284600F09D
:10063C00A1FA01221021204600F09CFA0A2000F0B9
:10064C0015F900221021204600F094FA0A2000F03F
:10065C000DF901221021204600F08CFA0A2000F03E
:10066C0005F901224FF48061284600F083FA0C4B07
:10067C00019301212120FFF7A3FF0121D020FFF7D7
:10068C009FFF01212020FFF79BFF01210C20FFF78A
:10069C0097FF03B030BD00BF00080140000C0140C3
:1006AC0021D0200C10B5002404E000210846FFF7EF
:1006BC0087FF0134B4F57C6FF7DB10BD38B5054608
:1006CC0000240AE0A5F1200303EB8303064A13443C
:1006DC000021185DFFF774FF0134042CF2DD0021BA
:1006EC000846FFF76DFF38BD00000020532803D8E3
:1006FC00002901DB052900DD704710B58038403139
:10070C00CCB20121C0B2FFF75BFF01212046FFF7FD
:10071C0057FF10BD82B00E4B9A6942F001029A61EC
:10072C009A6902F001020092009ADA6942F0805252
:10073C00DA61DB6903F080530193019B054A53682E
:10074C0023F0E06343F08063536002B0704700BF56
:10075C00001002400000014000B587B00023029356
:10076C000393049305930268124B9A4202D007B08C
:10077C005DF804FB03F560439A6942F480529A6178
:10078C009A6902F480520092009A9A6942F004022B
:10079C009A619B6903F004030193019BA0230293CC
:1007AC00022303930323059302A9034800F0D0F816
:1007BC00DDE700BF0030014000080140FEE7FEE726
:1007CC00FEE7FEE7FEE770477047704708B500F09C
:1007DC003BF808BD7047000010B504460E4B187866
:1007EC004FF47A73B3FBF0F30C4A1068B0FBF3F0E0
:1007FC0000F09AF868B90F2C01D901200AE0002208
:10080C0021464FF0FF3000F057F8054B1C600020DC
:10081C0000E0012010BD00BFE4010020E001002039
:10082C00E801002008B5074A136843F01003136071
:10083C00032000F02FF80020FFF7CEFFFFF76AFF30
:10084C00002008BD00200240034A1168034B1B78AE
:10085C000B441360704700BF90060020E401002099
:10086C00014B1868704700BF9006002038B504464D
:10087C00FFF7F6FF0546B4F1FF3F02D0044B1B789F
:10088C001C44FFF7EDFF401BA042FAD338BD00BF5C
:10089C00E4010020074AD36823F4E0631B041B0C1B
:1008AC00000200F4E060034343F0BF6343F4003301
:1008BC00D360704700ED00E000B5194BDB68C3F363
:1008CC000223C3F1070CBCF1040F28BF4FF0040C3A
:1008DC0003F1040EBEF1060F18D9033B4FF0FF3E97
:1008EC000EFA0CFC21EA0C0199400EFA03F322EAF1
:1008FC000303194300280BDB0901C9B200F1604066
:10090C0000F5614080F800135DF804FB0023E5E777
:10091C0000F00F000901C9B2024B1954F4E700BFF3
:10092C0000ED00E014ED00E00138B0F1807F0BD257
:10093C004FF0E0235861054AF02182F82310002083
:10094C00986107221A6170470120704700ED00E0A2
:10095C0070B582B00024A446A6E0804DAA4210D007
:10096C0007D97F4DAA420CD005F58035AA4208D094
:10097C0013E0A5F58015AA4203D005F57025AA420F
:10098C0007D18A68002A58D0012A51D04361082423
:10099C0003E0A5F58015AA42F3D0BEF1FF0F4ED8A7
:1009AC000646BEF1FF0F4CD84FEA8C0233680F2578
:1009BC00954023EA050304FA02F2134333604B68B3
:1009CC0013F0805F6ED0674B9A6942F001029A6116
:1009DC009B6903F001030193019B4FEA9C02951C58
:1009EC00614B53F825600CF003039D000F23AB40C3
:1009FC0026EA03065D4B984229D003F580639842A2
:100A0C0000F08E8003F58063984200F08B8003F534
:100A1C008063984219D004231AE0CC68BDE7CC68F7
:100A2C000434BAE7CC680834B7E7CC680C34B4E7C4
:100A3C0003610824B1E70024AFE70424ADE7061DE9
:100A4C00AFE7ACF108029200B0E7032300E000230B
:100A5C00AB4033430232444D45F822304B6813F41B
:100A6C00803F61D0424A136843EA0E0313604B681F
:100A7C0013F4003F5ED03E4A536843EA0E035360C2
:100A8C004B6813F4801F5BD0394A936843EA0E031A
:100A9C0093604B6813F4001F58D0354AD36843EA6F
:100AAC000E03D3600CF1010C0A6832FA0CF353D02C
:100ABC00012303FA0CF302EA030E33EA0202F1D12A
:100ACC004A68122A3FF649AF122A3FF666AF01A5D3
:100ADC0055F822F08F090008270A0008310A00088F
:100AEC00430A0008A7090008A7090008A70900087D
:100AFC00A7090008A7090008A7090008A70900080A
:100B0C00A7090008A7090008A7090008A7090008F9
:100B1C00A7090008A70900082B0A0008370A0008D3
:100B2C00012395E7022393E7114A136823EA0E0386
:100B3C0013609CE70E4A536823EA0E0353609FE749
:100B4C000B4A936823EA0E039360A2E7084AD36822
:100B5C0023EA0E03D360A5E702B070BD000022109B
:100B6C00000031100010024000000140000801405C
:100B7C00000401400AB1016170470904016170472A
:100B8C0082B0084B1B68084AA2FB03235B0A00FBDC
:100B9C0003F3019300BF019B5A1E0192002BF9D164
:100BAC0002B07047E0010020D34D6210002800F025
:100BBC00F18170B582B00446036813F0010F2CD09C
:100BCC00994B5B6803F00C03042B1DD0964B5B68B0
:100BDC0003F00C03082B12D06368B3F5803F41D0AF
:100BEC00002B55D103F1804303F504331A6822F42A
:100BFC0080321A601A6822F480221A6037E08A4B1D
:100C0C005B6813F4803FE7D0874B1B6813F4003FFD
:100C1C0003D06368002B00F0BF81236813F0020F30
:100C2C0075D0814B5B6813F00C0F5FD07E4B5B680B
:100C3C0003F00C03082B54D02369002B00F08A809E
:100C4C007A4B01221A60FFF70BFE0546764B1B68A8
:100C5C0013F0020F75D1FFF703FE401B0228F5D9E4
:100C6C0003209EE1704A136843F480331360636879
:100C7C0043B3FFF7F5FD05466B4B1B6813F4003FC0
:100C8C00CBD1FFF7EDFD401B6428F5D9032088E19B
:100C9C00B3F5A02F09D0644B1A6822F480321A6085
:100CAC001A6822F480221A60E1E703F18043A3F56D
:100CBC003C331A6842F480221A601A6842F480327B
:100CCC001A60D4E7FFF7CCFD0546574B1B6813F4AD
:100CDC00003FA2D0FFF7C4FD401B6428F5D90320C8
:100CEC005FE1514B5B6813F4803FA5D14E4B1B6801
:100CFC0013F0020F03D02369012B40F04F814A4AB5
:100D0C00136823F0F803616943EAC1031360236895
:100D1C0013F0080F33D0A369002B5CD0434B012296
:100D2C00C3F88024FFF79CFD05463F4B5B6A13F02C
:100D3C00020F21D1FFF794FD401B0228F5D90320A7
:100D4C002FE1394A136823F0F803616943EAC103C0
:100D5C001360DCE7354B00221A60FFF781FD054676
:100D6C00314B1B6813F0020FD1D0FFF779FD401BFC
:100D7C000228F5D9032014E10120FFF701FF2368B5
:100D8C0013F0040F00F09680274BDB6913F0805FA3
:100D9C0034D1254BDA6942F08052DA61DB6903F019
:100DAC0080530193019B0125214B1B6813F4807F19
:100DBC0026D0E368012B3DD0002B53D103F18043A7
:100DCC0003F504331A6A22F001021A621A6A22F03D
:100DDC0004021A6233E0154B0022C3F88024FFF79B
:100DEC003FFD0546104B5B6A13F0020FC7D0FFF7AF
:100DFC0037FD401B0228F5D90320D2E00025D3E7AC
:100E0C000B4A136843F480731360FFF729FD064601
:100E1C00074B1B6813F4807FCBD1FFF721FD801BA0
:100E2C006428F5D90320BCE00010024000004242C7
:100E3C00007000405F4A136A43F001031362E368D9
:100E4C0033B3FFF70DFD06465A4B1B6A13F0020F26
:100E5C002FD1FFF705FD801B41F288339842F3D95F
:100E6C0003209EE0052B09D0524B1A6A22F0010296
:100E7C001A621A6A22F004021A62E0E74D4B1A6AEF
:100E8C0042F004021A621A6A42F001021A62D6E7B0
:100E9C00FFF7E6FC0646474B1B6A13F0020F08D01F
:100EAC00FFF7DEFC801B41F288339842F3D9032014
:100EBC0077E0E5B9E369002B72D03E4A526802F044
:100ECC000C02082A56D0022B17D03B4B00221A6674
:100EDC00FFF7C6FC0446374B1B6813F0007F47D066
:100EEC00FFF7BEFC001B0228F5D9032059E0314A5C
:100EFC00D36923F08053D361DCE72F4B00221A66B1
:100F0C00FFF7AEFC05462B4B1B6813F0007F06D099
:100F1C00FFF7A6FC401B0228F5D9032041E0236A09
:100F2C00B3F5803F1AD023494B6823F47413226A1B
:100F3C00606A024313434B601F4B01221A66FFF792
:100F4C008FFC04461B4B1B6813F0007F0ED1FFF780
:100F5C0087FC001B0228F5D9032022E0154A5368B0
:100F6C0023F40033A1680B435360DCE7002018E046
:100F7C00002016E0012B16D00E4B5B6803F4803179
:100F8C00226A914211D103F47013626A93420ED11A
:100F9C00002006E001207047012002E0012000E063
:100FAC00002002B070BD0120FBE70120F9E7012011
:100FBC00F7E700BF001002400000424286B0164B1B
:100FCC000FCB0DF1180C0CE90F0040F20123ADF81A
:100FDC000430124B5B6803F00C02082A02D0104854
:100FEC0006B07047C3F38342624412F8100C13F43A
:100FFC00803F0CD0094B5B68C3F34043634413F848
:10100C00143C074A02FB00F0B0FBF3F0E8E7054B99
:10101C0003FB00F0E4E700BF70250008001002405D
:10102C0000127A0000093D00002800F0A08070B585
:10103C000D460446524B1B6803F007038B420BD240
:10104C004F4A136823F007030B431360136803F034
:10105C0007038B4240F08D80236813F0020F17D0EA
:10106C0013F0040F04D0474A536843F4E063536011
:10107C00236813F0080F04D0424A536843F46053BA
:10108C005360404A536823F0F003A1680B4353604C
:10109C00236813F0010F31D06368012B20D0022B91
:1010AC0025D0384A126812F0020F64D035494A68CC
:1010BC0022F0030213434B60FFF7D2FB0646314B81
:1010CC005B6803F00C036268B3EB820F16D0FFF77A
:1010DC00C7FB801B41F288339842F0D9032045E0CE
:1010EC00284A126812F4003FE0D101203EE0254A64
:1010FC00126812F0007FD9D1012037E0204B1B6819
:10110C0003F00703AB420AD91D4A136823F0070307
:10111C002B431360136803F00703AB422DD12368F4
:10112C0013F0040F06D0174A536823F4E063E16808
:10113C000B435360236813F0080F07D0114A536810
:10114C0023F46053216943EAC1035360FFF736FF70
:10115C000C4B5B68C3F303130B4AD35CD8400B4BAB
:10116C0018600B4B1868FFF737FB002070BD01208F
:10117C0070470120FAE70120F8E70120F6E700BFED
:10118C00002002400010024060250008E001002011
:10119C00E80100202DE9F04782B005468846174645
:1011AC001E46FFF75DFB0A9B1B1A03EB0609FFF7B4
:1011BC0057FB82462B4B1B68C3F3CB3309FB03F362
:1011CC0001932B689C6838EA04030CBF4FF0010CA8
:1011DC004FF0000CBC4540D0B6F1FF3FF1D0FFF70B
:1011EC003FFBA0EB0A0048450AD2B9F1000F07D02B
:1011FC00019A02B14A46019B013B01939146E0E7FB
:10120C002A68536823F0E00353606B68B3F5827F60
:10121C000BD0AB6AB3F5005F14D0012385F85130C5
:10122C00002385F85030032018E0AB68B3F5004F6D
:10123C0002D0B3F5806FECD12A68136823F0400319
:10124C001360E6E72A68136823F4005313602A68D6
:10125C00136843F400531360DFE7002002B0BDE8CD
:10126C00F08700BFE001002010B582B004460B46A9
:10127C00009200228021FFF78DFF08B902B010BD4B
:10128C00636D43F0200363650320F7E7002856D015
:10129C0010B50446436A33B94368B3F5827F05D071
:1012AC000023C36102E00023036143610023A362B6
:1012BC0094F85130002B3CD0022384F85130226832
:1012CC00136823F040031360636803F48273A2680D
:1012DC0002F404421343E26802F4006213432269ED
:1012EC0002F002021343626902F001021343A26985
:1012FC0002F400721343E26902F038021343226ACB
:10130C0002F080021343A26A02F4005221681343D4
:10131C000B60638B226803F0040353602268D3696B
:10132C0023F40063D36100206065012384F85130FD
:10133C0010BD84F850302046FFF70EFABCE70120B0
:10134C0070472DE9F04383B01D4690F85030012BC7
:10135C0000F0D180044688469146012380F8503035
:10136C00FFF77EFA074694F85160F6B2012E40F072
:10137C00AF80B8F1000F00F0AC80B9F1000F00F0B5
:10138C00A880032384F8513000236365C4F83080AF
:10139C00A4F83490A4F83690A363A387E38763641E
:1013AC002364A368B3F5004F1ED023681A6812F0AB
:1013BC00400F03D11A6842F040021A60E368B3F59B
:1013CC00006F1CD0636813B1B9F1010F52D1226BBD
:1013DC00236812781A73236B01332363E38E9BB259
:1013EC00013B9BB2E38645E02268136823F040037F
:1013FC0013602268136843F480431360D5E7636875
:10140C0013B1B9F1010F16D1226B23681288DA607F
:10141C00236B02332363E38E9BB2013B9BB2E386C7
:10142C0009E0FFF71DFAC01BA84202D3B5F1FF3F3C
:10143C0059D1002D59D0E38E9BB2002B33D02368A9
:10144C009A6812F0020FECD0226B1288DA60236BD0
:10145C0002332363E38E9BB2013B9BB2E386EAE744
:10146C00FFF7FEF9C01BA84202D3B5F1FF3F3ED1F6
:10147C00002D3ED0E38E9BB2ABB123689A6812F07C
:10148C00020FEDD0226B12781A73236B0133236396
:10149C00B4F836C01FFA8CFC0CF1FF3C1FFA8CFC24
:1014AC00A4F836C0E6E73A4629462046FFF7DCFEAC
:1014BC0008B120236365A36833B901932368DA6804
:1014CC0001929B680193019B636D13B9002600E0A8
:1014DC000226012384F85130002384F85030304622
:1014EC0003B0BDE8F0830326F3E70326F1E70326F8
:1014FC00EFE70326EDE70226F1E700000C480D4963
:10150C000D4A002302E0D458C4500433C4188C4252
:10151C00F9D30A4A0A4C002301E013600432A242B8
:10152C00FBD3FFF757F900F00FF8FFF705F87047FA
:10153C00000000201C060020682600081C06002065
:10154C009C060020FEE7000070B50D4E0D4D761B7D
:10155C00B61006D0002455F8043B01349847A64237
:10156C00F9D1094E094D00F0DFFF761BB61006D0FD
:10157C00002455F8043B01349847A642F9D170BDBC
:10158C005C2600085C260008642600085C2600081F
:10159C00830730B548D0541E002A3FD00346CAB248
:1015AC0001E0013C3AD303F8012B9D07F9D1032C40
:1015BC002DD9CDB245EA05250F2C45EA054536D97E
:1015CC00A4F1100222F00F0C03F1200EE6444FEAB6
:1015DC00121C03F1100242E9045542E90255103283
:1015EC007245F8D10CF1010214F00C0F03EB02124E
:1015FC0004F00F0C13D0ACF1040323F003030433F9
:10160C00134442F8045B9342FBD10CF003042CB15D
:10161C00CAB21C4403F8012B9C42FBD130BD64467A
:10162C001346002CF4D1F9E703461446BFE71A46DB
:10163C00A446E0E720F0030110F00300C0F1000025
:10164C0051F8043B00F1040C4FEACC0C6FF0000293
:10165C001CBF22FA0CF213434FF0010C4CEA0C2C79
:10166C004CEA0C4CA3EB0C0222EA030212EACC1259
:10167C0004BF51F8043B0430F4D0C2F1000102EA7B
:10168C000102B2FA82F2C2F11F0200EBD2007047E3
:10169C00024B13B1024800F01FB870470000000065
:1016AC00B116000838B5084B084D5B1B9C1007D0D1
:1016BC00043B1D44013C55F804399847002CF9D1E2
:1016CC00BDE8384000F036BF6826000864260008E4
:1016DC00704700BF704700BF002301461A461846EA
:1016EC0000F000B82DE9F047DFF87CA00646DAF8E8
:1016FC00000098460F469146FFF7EAFF1B4B1B680C
:10170C00D3F8484124B365681F2D26DC5EB96B1CE9
:10171C000235DAF80000636044F82570FFF7DAFF51
:10172C000020BDE8F087012304EB8501C1F8889007
:10173C00D4F88821AB401A43022EC4F88821C1F892
:10174C000881E4D1D4F88C211343C4F88C31DEE742
:10175C0003F5A674C3F84841D5E7DAF80000FFF7A3
:10176C00B9FF4FF0FF30DCE7180600208425000895
:10177C00FEE700BF03685A004CBF43F0004323F060
:10178C0000431844704700BF2DE9F84339B34F1E8E
:10179C00044615463E464FF0000808EB060101EBE7
:1017AC00D171491004EBC1094846FFF7E3FF03462A
:1017BC00C80008308F4220440BD0AB420BD8FFF747
:1017CC00D9FF0138A84201F10108E6D34846BDE82B
:1017DC00F883AB42FAD9884501D04E1EDDE74FF0B5
:1017EC0000094846BDE8F883012807D0022807D035
:1017FC00044B00280CBF1846002070470248704765
:10180C0002487047D51E0008DD1E0008E51E0008C2
:10181C0030B5244B044683B08D1E3BB3284601A93A
:10182C00AFF30080E8B101992A46FFF7ADFF0146FE
:10183C00B8B1FFF79FFF4B68A064012B2ED0002B93
:10184C0027DB081DFFF796FF0023C4E91303036889
:10185C00002B12DBFFF78EFF03460020236103B041
:10186C0030BD00230920236103B030BD0E4B0F495E
:10187C001846C91AC9100191D6E7C3F30360FFF7E4
:10188C00B3FF0028034614BF00200920236103B0D6
:10189C0030BD0123081DC4E91303D8E7002305203C
:1018AC002361DCE700000000942500085C2600089A
:1018BC00036810B5DA07044606D49B0700F148000C
:1018CC0009D5FEF731FC2368590709D51A070ED53F
:1018DC00DB0613D510BDFEF71FFC23685907F5D4A2
:1018EC0004F1D000FEF728FC23681A07F0D404F5A5
:1018FC00A870FEF729FC2368DB06EBD404F5E8702E
:10190C00BDE81040FEF764BC0346006800B1184403
:10191C00704700BF704700BF70B504460E462046A6
:10192C00316CFFF775FF054698B9D6F840C03246C2
:10193C00214601202369C4F814C098470828EED02A
:10194C00072806D12846316CFFF7E4FF301DFEF75F
:10195C00D7FB00F08DFD00BF2DE9F0474FF0000ADA
:10196C00ADF5727D0DF10C0E01F1040CC768D0F8C9
:10197C00188006461446BCE80F00AEE80F00BCE821
:10198C000F00AEE80F00BCE80F00AEE80F009CE8BB
:10199C000F0002AD8EE80F00C5F800A021E02B6C03
:1019AC004FF4F072294673617AA8FEF77FFC31463A
:1019BC00504633697AAA9847889C82466C643346B1
:1019CC00324649460120CDE90058B8470446F0B9E3
:1019DC004FF4F07228467AA9FEF768FCBAF1080FAA
:1019EC001BD13046296CFFF713FF04F109095FFA8C
:1019FC0089FA04460028D2D0A96B33466964324672
:101A0C000120CDE900584AF01001B84700B1092473
:101A1C0020460DF5727DBDE8F087BAF1070FF6D1BF
:101A2C002046296CFFF776FF03A8FEF769FB00BF81
:101A3C00F0B54FF0FF37CB6BF9B00B6401AC01F193
:101A4C00040C0E460546BCE80F000FC4BCE80F00A2
:101A5C000FC4BCE80F000FC49CE80F0084E80F0013
:101A6C00009706E06A4629462B69984708280446E1
:101A7C0008D128461099FFF7CBFE0028F2D0092098
:101A8C0079B0F0BD6846FFF713FF062CF7D131464D
:101A9C002846FFF741FF00BF10B414468461DC6B8D
:101AAC00C16000221C64194610BCFFF755BF00BF73
:101ABC0070B54369C6680B64AEB90A46036904463F
:101ACC000D46014602209847072805D008280FD15B
:101ADC0029462046FFF720FF3046296CFFF71AFFF6
:101AEC00281DFEF70DFB0122FFF736FF00F0C0FCAE
:101AFC0000F0BEFCC26832B1D1F83CC00022C1F883
:101B0C0040C0FFF729BFFFF793BF00BF012912D0D8
:101B1C0009D873B90F2A0CD800EB8200426818461A
:101B2C00009B1A6070470339012994BF01200220E1
:101B3C007047022070470846704700BF002300B56D
:101B4C0085B00A4603A900911946FFF7DFFF0398F9
:101B5C0005B05DF804FB00BF012912D009D873B998
:101B6C000F2A0CD8009900EB8202096818465160C4
:101B7C0070470339012994BF0120022070470220CD
:101B8C0070470846704700BF002310B584B003AC03
:101B9C00039200940A461946FFF7DEFF04B010BD0D
:101BAC0070B54FF0FF36D36BADF50E7D13640DF1B0
:101BBC005C0E02F1040C05460C46BCE80F00AEE8C6
:101BCC000F00BCE80F00AEE80F00BCE80F00AEE859
:101BDC000F009CE80F008EE80F00169612E00C2107
:101BEC0016A86A46FFF7D0FF214616A8A84778B971
:101BFC0069460820049B16AA98470528064608D073
:101C0C00092805D068462699FFF702FE0028E6D081
:101C1C00092616A8FFF74CFE30460DF50E7D70BD5B
:101C2C002DE9F04F1E46CC6C89B054F8043B0D46A0
:101C3C00174600F003080694002E79D002228DF886
:101C4C001C201A0C8DF81D201B04D2B2059304EB3A
:101C5C0082042B6DB8F1020F08BFAC6B13F00103BB
:101C6C000CD0384605A900F091FA18B9082009B033
:101C7C00BDE8F08F092009B0BDE8F08FD4F800A0C2
:101C8C00BAF1000FEDD0019300F008030293022E7D
:101C9C004AD0B4F800A0B4F802900434AA6C0F2116
:101CAC00384629F0010B9344FFF748FF834539D898
:101CBC002AF001025A44824294BF002001204FEACC
:101CCC00490303F002030AF0010A43EA0A03012B59
:101CDC0049D0022B32D0002BCCD1B8F1000F02D05E
:101CEC00002840F0CE800434D4F800A0BAF1000FE4
:101CFC00CDD1384605A900F049FA0028BAD1019B8C
:101D0C00002BB3D00F213846FFF718FF0E210246E7
:101D1C003846FFF739FF38460F216A4AFFF734FF80
:101D2C000720A8E70020CAE7D4F804900834B5E7E8
:101D3C001B0205930323ADF81C308AE7236823F0BC
:101D4C00004BB8F1000F45D128B1029A002A5CD0A3
:101D5C00BBF1000F74D0002B00DA04340BF1010B33
:101D6C0004EB8B04C0E7B8F1000F19D1B0B1636874
:101D7C002268991C4FEAD2723FF47CAF05F15801EE
:101D8C000133049100F09180201DFFF7BDFD04ABE1
:101D9C0001462846AFF3008000285CD10834A3E745
:101DAC000D213846D5F82090FFF7C8FE8145F5D1B6
:101DBC00AB6A9C42F2D12046FFF7DCFC0F210246B5
:101DCC003846FFF7E1FE38462A460021FFF7DCFED5
:101DDC00072050E70D213846D5F82090FFF7AEFECE
:101DEC00814501D02368B6E7AB6A9C42FAD1042343
:101DFC000022C5E90B23E318C5F828B06B632368F0
:101E0C00002B5ADB01230193A8E705F15803CDF809
:101E1C000C809146B04604F1040A1E460EE0504672
:101E2C000496FFF771FD0022014604AB284609F128
:101E3C0001090AF1040AAFF30080E8B9D945EED1E3
:101E4C000D213846FFF77AFE0346049A0620C5E9B1
:101E5C0009242B620FE781460D213846FFF76EFEF1
:101E6C00B9F1020F286225D12B46049A43F82C2F86
:101E7C006B620620AC62FEE646462368DDF80C80F9
:101E8C0069E72046FFF776FC02460434AC6328462B
:101E9C001446AFF3008000283FF4ECAE38462246DF
:101EAC000F21FFF771FE0720E5E60D213846FFF7FD
:101EBC0045FE2862049B6B62DBE70BF1010004EB2F
:101ECC00800079E7000000000023FFF7A9BE00BFE7
:101EDC000123FFF7A5BE00BF0223FFF7A1BE00BF81
:101EEC002DE9F043064615461C46C3B0042900F202
:101EFC00B880DFE801F09C56B62D0300002C40F0B2
:101F0C00B080102A00F2AD800368D80600F1F18091
:101F1C0020AF3846FEF766F9012438460023B16B32
:101F2C0004FA03F22A4203F1010305D00A4652F8DF
:101F3C0004CB1146C0F800C0042B00F10400EFD113
:101F4C003846B163FEF744F9002043B0BDE8F08396
:101F5C00032C40F0868094B204EB1243102B4FEA12
:101F6C0012457ED803681F0700F1CB8020AF38469E
:101F7C00FEF70CF9B26B07EBC50154B10B4601EB44
:101F8C00C401D01AE4001D5843F8045B8B42FAD10B
:101F9C0022443846B263FEF7D7F8002043B0BDE8C0
:101FAC00F083012C4FEA124895B256D0052C58D12B
:101FBC0008EB0509B9F1200F53D8B8F10F0F73D9FD
:101FCC00A946002D40F08480B36B65B320AF4FF071
:101FDC00000907EBC807043F03EBC50553F8041BC6
:101FEC00AB4247F8041FF9D1B9F1000F0FD06F467F
:101FFC004146102938BF102107EBC101843903EB8E
:10200C00C90553F8040BAB4241F8040FF9D1012C6C
:10201C007FD0B8F10F0FB56342D9B9F1000F02D0E0
:10202C006846FEF789F8002043B0BDE8F083C4B9D8
:10203C0023460124826B371DA8B204FA03F1014236
:10204C001CBF52F8041B47F823100133102BF4D19A
:10205C0015F40050E7D1B26304E008EB0503102B34
:10206C0003D9022043B0BDE8F083B8F10F0FF8D8C4
:10207C003368DA0706D5304623F0030340F8483BB3
:10208C00FEF74EF820AF3846FEF74AF8B36B002D3A
:10209C009DD11D4604353846B563FEF73DF8C2E7C1
:1020AC0020A8FEF741F8B8E7B9F1100F3FD9A9F114
:1020BC0010093368D90708D5304623F0010343F0E3
:1020CC00020340F8483BFEF733F8B9F1000F31D06A
:1020DC0033685A071FD4B8F10F0F24D96F46C8F1D3
:1020EC0010053846FEF72CF8002DB36B80DD20AFC1
:1020FC006FE723F01003336006F5E870FEF772F813
:10210C0006E723F00803036000F5A870FEF73EF81D
:10211C002CE720AFBEE7304623F0040340F8D03B59
:10212C00FEF70EF8D7E720A8FEF702F8D6E74FF037
:10213C000009BEE7B8F10F0F3FF646AF20AF3846A7
:10214C00FDF7F6FFB36B002D7FF441AF3846FDF77A
:10215C00EBFF68E7027A03467AB9427AA2B14FF0F4
:10216C00030C4168013A427208680A1D5A60020267
:10217C0083F808C0000E1A6070470068013A1A72A2
:10218C0002021A60000E7047B02070472DE9F04330
:10219C004FF0000805460E4685B03046FFF7DAFFD3
:1021AC00B028044600F0BA80070620D500F0F003F2
:1021BC00802B4DD0902B36D0A02B60D0B02B73D071
:1021CC00C02B00F08A8000F0F803D02B0BD100F06C
:1021DC000702013205230121284642F40022FFF7B1
:1021EC007FFE0028D9D0092005B0BDE8F08383001C
:1021FC00DBB21F1D00230DF10C0919460D222846D8
:10220C00CDF80090FFF782FC039B60064CBFDF1BF0
:10221C00FF1800230D2228461946CDF8009003978D
:10222C00FFF79AFCB9E700F00D030D2BDBD0002370
:10223C0003AF194600F00F0200972846FFF766FC23
:10224C0000230D22284619460097FFF785FCA4E7CA
:10225C003046FFF77FFF24022043B0F5004FC2D079
:10226C000023040119462846A2B2FFF739FE0028C4
:10227C00B9D114F4004F18BF4FF001088DE7C343D8
:10228C004FF47F6203F007031A410023010702F4A5
:10229C007F6248BF42F4804228461946FFF720FE71
:1022AC0000283FF47AAF9EE7B1283CD0B22800F06A
:1022BC00B080B3284AD000F0FC03B42B93D0012398
:1022CC0000F007021A442846194642F40022FFF790
:1022DC0007FE00283FF461AF85E7C6284FD0C7281A
:1022EC0061D000F0F803C02B70D0C8287CD0C9286E
:1022FC007FF479AF3046FFF72DFF0523024601210D
:10230C002846140302F00F0204F470240A442243FA
:10231C00FFF7E6FD00283FF440AF64E7B8F1000F8B
:10232C001CD0002060E73046FFF714FF024600285F
:10233C003FF459AF10F0F0037FF455AF194628461F
:10234C00FFF7CEFD00283FF428AF4CE73046FFF7EF
:10235C0001FF0123024619462846D2E703AC434647
:10236C000E22414628460094FFF7D0FB43460F222D
:10237C00284641460094FFF7EFFB404634E73046D1
:10238C00FFF7E8FE02460323140302F00F0204F4E5
:10239C0070240132284619462243FFF7A1FD00287C
:1023AC003FF4FBAE1FE73046FFF7D4FE0246002891
:1023BC003FF419AF10F0F0037FF415AF0421284659
:1023CC00FFF78EFD00283FF4E8AE0CE7032300F086
:1023DC000F0201322846194642F42022FFF780FDF5
:1023EC0000283FF4DAAEFEE63046FFF7B3FE0246B5
:1023FC00012102F0F00402F00F0210340A4405230C
:10240C00284642EA0432FFF76BFD00283FF4C5AEC4
:10241C00E9E600230DF10C090D2219462846CDF8EA
:10242C000090FFF773FB3046FFF794FE02064FF067
:10243C0002040CD5039B00F07F00A04018440390CD
:10244C003046FFF787FE030604F10704F2D4039B22
:10245C0000F07F02A24003F501731A44002303929B
:10246C0028460D221946CDF80090FFF775FB94E62F
:10247C00062008B500F004F80120FFF779F900BF39
:10248C0038B5154B1F281D6820D8D5F8DC2204461A
:10249C0062B152F820304BB1012B15D0591C0FD022
:1024AC00002542F820509847284638BD284600F0B1
:1024BC0029F8224601462846BDE8384000F00EB8FF
:1024CC00162301202B6038BD002038BD16234FF099
:1024DC00FF302B6038BD00BFEC01002070B500262A
:1024EC00074D0446084611462E6000F015F8431CB3
:1024FC0000D070BD2B68002BFBD0236070BD00BFDB
:10250C009806002000F000B85822024B4FF0FF3024
:10251C001A607047980600205822024B4FF0FF308B
:10252C001A60704798060020F8B500BFF8BC08BCCC
:10253C009E467047F8B500BFF8BC08BC9E46704775
:10254C005375706572204D616D6100005069656D49
:10255C006F6C00000000000000000000010203048A
:10256C000607080902030405060708090A0B0C0DE7
:0C257C000E0F101000000000F001002005
:0C25880008B10181B0B000840000000028
:10259400C0EFFF7FB0B0AA8000F0FF7F0100000011
:1025A4000CF1FF7FA908B18030F1FF7F010000002A
:1025B4003CF1FF7FB0B0AE80C0F1FF7F01000000AE
:1025C40058F2FF7FB0A90280F0F2FF7FB0B0A8807C
:1025D40040F3FF7F0100000048F3FF7FB0B0AA8002
:1025E40080F3FF7FAE71B28050F4FF7FAB3F388041
:1025F400B0F4FF7F01000000C0F4FF7FB0B0AA80F8
:10260400FCF4FF7F01000000A0F5FF7FAA0DB2805B
:1026140018F6FF7FB0AF0880B8F8FF7F0100000014
:10262400C8F8FF7FAD3F028034FBFF7F010000004C
:1026340064FBFF7FB0AD048040FEFF7F48FFFF7F57
:1026440048FEFF7FA908B1809CFEFF7FB0B0AA803E
:08265400BCFEFF7F0100000045
:08265C009D160008C9030008E7
:04266400A5030008C2
:10266800000000000000004F0000000700070014F1
:102678007F147F14242A7F2A1223130864623649A0
:102688005522500005030000001C22410000412291
:102698001C0014083E081408083E080800503000C2
:1026A80000080808080800606000002010080402FC
:1026B8003E5149453E00427F400042615149462112
:1026C80041454B311814127F1027454545393C4A7E
:1026D80049493003710905033649494936064949CC
:1026E800291E006C6C0000005636000008142241B8
:1026F800001414141414004122140802015109068C
:10270800324979413E7E1111117E7F4949493E3E49
:10271800414141227F4141413E7F494949497F0921
:102728000909013E4149493A7F0808087F41417F2C
:1027380041413041413F017F081422417F404040E0
:10274800407F020C027F7F0408107F3E4141413EDA
:102758007F090909063E4151215E7F09091966462C
:102768004949493101017F01013F4040403F0F3055
:1027780040300F3F4038403F631408146303047827
:10278800040361514945437F414100000204081098
:1027980020000041417F04020102044040404040C3
:1027A800000102040020545454787F4844443838C7
:1027B80044444420384444487F3854545418087ECC
:1027C8000901020C5252523E7F0804047800447DED
:1027D80040002040443D007F1028440000417F40D5
:1027E8000078040804787C080404783844444438A1
:1027F8007C141414080814147C007C080404084889
:1028080054545420043F4440203C4040207C1C2029
:1028180040201C3C4030403C44281028440C505078
:10282800503C4464544C44000836410000007F008A
:1028380000004136080008040408040000000000F5
:102848000024F4000100000010000000F001002046
:1028580000000000DC04002044050020AC05002036
:102868000000000000000000000000000000000060
:102878000000000000000000000000000000000050
:102888000000000000000000000000000000000040
:102898000000000000000000000000000000000030
:1028A8000000000000000000000000000000000020
:1028B8000000000000000000000000000000000010
:1028C8000000000000000000000000000000000000
:1028D80000000000000000000000000000000000F0
:1028E80000000000000000000000000000000000E0
:1028F80000000000000000000100000000000000CF
:102908000E33CDAB34126DE6ECDE05000B00000093
:1029180000000000000000000000000000000000AF
:10292800000000000000000000000000000000009F
:10293800000000000000000000000000000000008F
:10294800000000000000000000000000000000007F
:0C2C780000000000000000009406002096
:0400000508001509D1
:00000001FF
